:100000000C9435000C945D000C945D000C945D0024
:100010000C945D000C945D000C945D000C945D00EC
:100020000C945D000C945D000C945D000C945D00DC
:100030000C945D000C945D000C945D000C945D00CC
:100040000C94FB030C945D000C94E9020C941B03CC
:100050000C945D000C945D000C945D000C945D00AC
:100060000C945D000C945D004B0311241FBECFEF78
:10007000D8E0DEBFCDBF11E0A0E0B1E0E2EAFBE0F6
:1000800002C005900D92A832B107D9F721E0A8E28D
:10009000B1E001C01D92A43DB207E1F710E0CAE64D
:1000A000D0E004C02297FE010E94A404C836D10704
:1000B000C9F70E94EA030C94CF050C940000CF937B
:1000C000DF9300D01F92CDB7DEB7FC018281882379
:1000D00019F0128282E70BC08181882319F0118206
:1000E00085E705C08081882319F010828CE6838320
:1000F000CE0101960F900F900F90DF91CF91089550
:10010000FC011182108213821282158214821782DE
:1001100016828EE6808711860895FF920F931F93B3
:10012000CF93DF93EC01F62E042F122F8E819F8147
:10013000892B99F488E090E00E94F903FC018EE697
:1001400083831582148217821682F08201831283C0
:10015000F983E883FB83EA8318C088E090E00E947B
:10016000F903FC018EE6838317821682F0820183F5
:100170001283FD83EC83A881B981B583A48317968C
:10018000FC93EE931697F983E8838E819F81019605
:100190009F838E83DF91CF911F910F91FF900895E0
:1001A000CF93DF93DC0116968D919C9117971816CB
:1001B0001906CCF4ED91FC9111971596FC93EE93F2
:1001C00014978130910549F0C481D5811196DC9353
:1001D000CE931F821E8215821482019717969C93DC
:1001E0008E93169702C0E0E0F0E0CF01DF91CF914F
:1001F0000895CF93DF93EC01888199810E945F007D
:10020000FC0180818E3611F4818112C0853741F462
:1002100091819C3611F482E70BC09436B9F410C07A
:10022000823741F481818537B1F38C3679F485E7E3
:1002300088870CC08C3651F48181843639F482E78A
:10024000888781E08987CE010E94D0008885DF9170
:10025000CF910895CF93DF93EC016115710589F17A
:100260006130710529F48985811121C020E01AC00F
:100270006230710539F48985811119C021E041E0AE
:1002800060E012C06330710531F4898581110FC0BF
:1002900021E040E008C06430710571F48985811166
:1002A00006C021E041E061E0CE010E948D00CE0158
:1002B000DF91CF910C94F9006530710521F480E74E
:1002C00003C082E501C08EE6DF91CF910895CF9300
:1002D000DF9326E040E855E260E070E08AE291E0DA
:1002E0000E9487028AE090E00E94F903EC010E94DC
:1002F0008000D0932901C093280121E041E061E012
:10030000CE010E948D0021E041E061E08091280152
:10031000909129010E948D0021E041E061E08091EF
:10032000280190912901DF91CF910C948D0061E01B
:1003300070E080912801909129010E942A01682F84
:100340008AE291E00C94D703FC01818D228D90E02C
:10035000805C9F4F821B91098F7399270895FC0140
:10036000918D828D981731F0828DE80FF11D858D6A
:1003700090E008958FEF9FEF0895FC01918D828D9D
:10038000981761F0828DDF01A80FB11D5D968C91E9
:10039000928D9F5F9F73928F90E008958FEF9FEFF4
:1003A000089581E493E0892B49F080E090E0892B67
:1003B00029F00E94410381110C9400000895FC0172
:1003C000848DDF01A80FB11DA35ABF4F2C91848DDE
:1003D00090E001968F739927848FA689B7892C9313
:1003E000A089B1898C9180648C93938D848D9813AE
:1003F00006C00288F389E02D80818F7D8083089577
:10040000CF93DF93EC01888D8823C9F0EA89FB89BB
:10041000808185FD05C0A889B9898C9186FD0FC0B2
:100420000FB607FCF5CF808185FFF2CFA889B98987
:100430008C9185FFEDCFCE010E94DF01E7CFDF91E8
:10044000CF910895CF92DF92FF920F931F93CF9396
:10045000DF931F92CDB7DEB76C0181E0D6015896CD
:100460008C9358975B969C915B975C968C915C976C
:10047000981307C05096ED91FC915197808185FDAE
:100480002EC0F601038D10E00F5F1F4F0F73112771
:10049000F02EF601848DF81211C00FB607FCF9CFCB
:1004A000D6015096ED91FC915197808185FFF1CF57
:1004B000C60169830E94DF016981EBCF838DE80F5C
:1004C000F11DE35AFF4F6083D6015B960C935B9757
:1004D0005296ED91FC915397808180620CC0D601B9
:1004E0005696ED91FC91579760835096ED91FC9153
:1004F000519780818064808381E090E00F90DF914C
:10050000CF911F910F91FF90DF90CF900895BF92F0
:10051000CF92DF92EF92FF92CF93DF93EC016A01CB
:100520007B01B22EE889F98982E08083411581EE52
:10053000580761057105A1F060E079E08DE390E076
:10054000A70196010E9480042150310941095109F7
:100550005695479537952795211580E1380798F0EE
:10056000E889F989108260E874E88EE190E0A701DB
:1005700096010E9480042150310941095109569584
:10058000479537952795EC85FD853083EE85FF856A
:100590002083188EEC89FD89B082EA89FB898081ED
:1005A00080618083EA89FB89808188608083EA8911
:1005B000FB89808180688083EA89FB8980818F7DC7
:1005C0008083DF91CF91FF90EF90DF90CF90BF902D
:1005D00008951F920F920FB60F9211242F938F93AD
:1005E0009F93EF93FF93E0913A01F0913B0180815B
:1005F000E0914001F091410182FD12C09081809113
:1006000043018F5F8F7320914401821751F0E09175
:100610004301F0E0E65DFE4F958F8093430101C0FA
:100620008081FF91EF919F918F912F910F900FBE3D
:100630000F901F9018951F920F920FB60F921124D2
:100640002F933F934F935F936F937F938F939F93DA
:10065000AF93BF93EF93FF938AE291E00E94DF0193
:10066000FF91EF91BF91AF919F918F917F916F918A
:100670005F914F913F912F910F900FBE0F901F9060
:1006800018958AE291E00E94A40121E0892B09F4E7
:1006900020E0822F089510922D0110922C0188EEF7
:1006A00093E0A0E0B0E080932E0190932F01A093FF
:1006B0003001B09331018AE091E090932B01809357
:1006C0002A0185EC90E0909337018093360184EC09
:1006D00090E0909339018093380180EC90E0909302
:1006E0003B0180933A0181EC90E090933D0180932F
:1006F0003C0182EC90E090933F0180933E0186ECB8
:1007000090E0909341018093400110924301109238
:10071000440110924501109246010895CF92DF9254
:10072000EF92FF920F931F93CF93DF937C016A01A7
:10073000EB0100E010E00C151D0571F06991D70187
:10074000ED91FC910190F081E02DC7010995892B75
:1007500019F00F5F1F4FEFCFC801DF91CF911F91AD
:100760000F91FF90EF90DF90CF9008956115710584
:1007700081F0DB010D900020E9F7AD0141505109F6
:10078000461B570BDC01ED91FC910280F381E02DBB
:10079000099480E090E00895DC01ED91FC910190D6
:1007A000F081E02D099466E171E00C94B6030F939B
:1007B0001F93CF93DF93EC010E94CC038C01CE01F9
:1007C0000E94D303800F911FDF91CF911F910F9152
:1007D000089508950E9445040E94E9030E9467015C
:1007E000C1EDD1E00E9497012097E1F30E94D10171
:1007F000F9CF0C94A8041F920F920FB60F921124F8
:100800002F933F938F939F93AF93BF938091C80192
:100810009091C901A091CA01B091CB013091C7015B
:1008200023E0230F2D3720F40196A11DB11D05C033
:1008300026E8230F0296A11DB11D2093C7018093C6
:10084000C8019093C901A093CA01B093CB018091D4
:10085000CC019091CD01A091CE01B091CF01019634
:10086000A11DB11D8093CC019093CD01A093CE0129
:10087000B093CF01BF91AF919F918F913F912F91F5
:100880000F900FBE0F901F901895789484B58260DA
:1008900084BD84B5816084BD85B5826085BD85B524
:1008A000816085BDEEE6F0E0808181608083E1E8D3
:1008B000F0E010828081826080838081816080830B
:1008C000E0E8F0E0808181608083E1EBF0E080810E
:1008D00084608083E0EBF0E0808181608083EAE7E0
:1008E000F0E0808184608083808182608083808169
:1008F000816080838081806880831092C100089528
:10090000A1E21A2EAA1BBB1BFD010DC0AA1FBB1F13
:10091000EE1FFF1FA217B307E407F50720F0A21B85
:10092000B30BE40BF50B661F771F881F991F1A94F2
:1009300069F760957095809590959B01AC01BD011C
:10094000CF010895EE0FFF1F0590F491E02D09945B
:10095000CF93DF938230910510F482E090E0E09134
:10096000D201F091D30120E030E0A0E0B0E0309778
:1009700039F14081518148175907B8F04817590794
:1009800071F482819381109729F013969C938E9332
:1009900012972CC09093D3018093D20127C02115C8
:1009A000310531F04217530718F0A901DB0101C0EE
:1009B000EF019A01BD01DF010280F381E02DD7CF65
:1009C00021153105F9F0281B390B2430310580F44D
:1009D0008A819B816115710521F0FB0193838283DC
:1009E00004C09093D3018093D201FE01329644C09B
:1009F000FE01E20FF31F8193919322503109398355
:100A000028833AC02091D0013091D101232B41F4A9
:100A100020910201309103013093D1012093D00144
:100A200020910001309101012115310541F42DB7CC
:100A30003EB74091040150910501241B350BE09114
:100A4000D001F091D101E217F307A0F42E1B3F0B68
:100A50002817390778F0AC014E5F5F4F2417350730
:100A600048F04E0F5F1F5093D1014093D001819306
:100A7000919302C0E0E0F0E0CF01DF91CF910895C3
:100A8000CF93DF93009709F487C0FC01329713825C
:100A90001282C091D201D091D301209781F420819C
:100AA0003181280F391F8091D0019091D101821797
:100AB000930779F5F093D101E093D0016DC0DE0189
:100AC00020E030E0AE17BF0750F412964D915C91D4
:100AD00013979D014115510509F1DA01F3CFB38355
:100AE000A28340815181840F951F8A179B0771F45F
:100AF0008D919C911197840F951F0296918380830D
:100B000012968D919C9113979383828321153105C1
:100B100029F4F093D301E093D2013EC0D90113969A
:100B2000FC93EE9312974D915D91A40FB51FEA17B8
:100B3000FB0779F480819181840F951F0296D9017A
:100B400011969C938E938281938113969C938E939E
:100B50001297E0E0F0E08A819B81009719F0FE0196
:100B6000EC01F9CFCE01029628813981820F931FC3
:100B70002091D0013091D1012817390769F43097BD
:100B800029F41092D3011092D20102C01382128272
:100B9000D093D101C093D001DF91CF910895F89403
:020BA000FFCF85
:100BA2000000D40180000000000022028E03A40194
:100BB200BD01AF0100020D0A006E616E00696E6632
:080BC200006F7666002E0000B2
:00000001FF
